{
  "_format": "hh-sol-artifact-1",
  "contractName": "Create",
  "sourceName": "contracts/VotingContract.sol",
  "abi": [
    {
      "inputs": [],
      "stateMutability": "nonpayable",
      "type": "constructor"
    },
    {
      "anonymous": false,
      "inputs": [
        {
          "indexed": true,
          "internalType": "uint256",
          "name": "candidateId",
          "type": "uint256"
        },
        {
          "indexed": false,
          "internalType": "string",
          "name": "age",
          "type": "string"
        },
        {
          "indexed": false,
          "internalType": "string",
          "name": "name",
          "type": "string"
        },
        {
          "indexed": false,
          "internalType": "string",
          "name": "image",
          "type": "string"
        },
        {
          "indexed": false,
          "internalType": "uint256",
          "name": "voteCount",
          "type": "uint256"
        },
        {
          "indexed": false,
          "internalType": "address",
          "name": "_address",
          "type": "address"
        },
        {
          "indexed": false,
          "internalType": "string",
          "name": "ipfs",
          "type": "string"
        }
      ],
      "name": "CandidateCreate",
      "type": "event"
    },
    {
      "anonymous": false,
      "inputs": [
        {
          "indexed": true,
          "internalType": "uint256",
          "name": "voter_voterId",
          "type": "uint256"
        },
        {
          "indexed": false,
          "internalType": "string",
          "name": "voter_name",
          "type": "string"
        },
        {
          "indexed": false,
          "internalType": "string",
          "name": "voter_image",
          "type": "string"
        },
        {
          "indexed": false,
          "internalType": "address",
          "name": "voter_address",
          "type": "address"
        },
        {
          "indexed": false,
          "internalType": "bool",
          "name": "voter_voted",
          "type": "bool"
        },
        {
          "indexed": false,
          "internalType": "uint256",
          "name": "voter_vote",
          "type": "uint256"
        },
        {
          "indexed": false,
          "internalType": "string",
          "name": "voter_ipfs",
          "type": "string"
        }
      ],
      "name": "VoterCreated",
      "type": "event"
    },
    {
      "inputs": [],
      "name": "_candidateId",
      "outputs": [
        {
          "internalType": "uint256",
          "name": "_value",
          "type": "uint256"
        }
      ],
      "stateMutability": "view",
      "type": "function"
    },
    {
      "inputs": [],
      "name": "_voterId",
      "outputs": [
        {
          "internalType": "uint256",
          "name": "_value",
          "type": "uint256"
        }
      ],
      "stateMutability": "view",
      "type": "function"
    },
    {
      "inputs": [
        {
          "internalType": "uint256",
          "name": "",
          "type": "uint256"
        }
      ],
      "name": "candidateAddress",
      "outputs": [
        {
          "internalType": "address",
          "name": "",
          "type": "address"
        }
      ],
      "stateMutability": "view",
      "type": "function"
    },
    {
      "inputs": [
        {
          "internalType": "address",
          "name": "",
          "type": "address"
        }
      ],
      "name": "candidates",
      "outputs": [
        {
          "internalType": "uint256",
          "name": "candidateId",
          "type": "uint256"
        },
        {
          "internalType": "string",
          "name": "age",
          "type": "string"
        },
        {
          "internalType": "string",
          "name": "name",
          "type": "string"
        },
        {
          "internalType": "string",
          "name": "image",
          "type": "string"
        },
        {
          "internalType": "uint256",
          "name": "voteCount",
          "type": "uint256"
        },
        {
          "internalType": "address",
          "name": "_address",
          "type": "address"
        },
        {
          "internalType": "string",
          "name": "ipfs",
          "type": "string"
        }
      ],
      "stateMutability": "view",
      "type": "function"
    },
    {
      "inputs": [],
      "name": "getCandidate",
      "outputs": [
        {
          "internalType": "address[]",
          "name": "",
          "type": "address[]"
        }
      ],
      "stateMutability": "view",
      "type": "function"
    },
    {
      "inputs": [],
      "name": "getCandidateLength",
      "outputs": [
        {
          "internalType": "uint256",
          "name": "",
          "type": "uint256"
        }
      ],
      "stateMutability": "view",
      "type": "function"
    },
    {
      "inputs": [
        {
          "internalType": "address",
          "name": "_address",
          "type": "address"
        }
      ],
      "name": "getCandidatedata",
      "outputs": [
        {
          "internalType": "string",
          "name": "",
          "type": "string"
        },
        {
          "internalType": "string",
          "name": "",
          "type": "string"
        },
        {
          "internalType": "uint256",
          "name": "",
          "type": "uint256"
        },
        {
          "internalType": "string",
          "name": "",
          "type": "string"
        },
        {
          "internalType": "uint256",
          "name": "",
          "type": "uint256"
        },
        {
          "internalType": "string",
          "name": "",
          "type": "string"
        },
        {
          "internalType": "address",
          "name": "",
          "type": "address"
        }
      ],
      "stateMutability": "view",
      "type": "function"
    },
    {
      "inputs": [],
      "name": "getVotedVoterList",
      "outputs": [
        {
          "internalType": "address[]",
          "name": "",
          "type": "address[]"
        }
      ],
      "stateMutability": "view",
      "type": "function"
    },
    {
      "inputs": [],
      "name": "getVoterLength",
      "outputs": [
        {
          "internalType": "uint256",
          "name": "",
          "type": "uint256"
        }
      ],
      "stateMutability": "view",
      "type": "function"
    },
    {
      "inputs": [],
      "name": "getVoterList",
      "outputs": [
        {
          "internalType": "address[]",
          "name": "",
          "type": "address[]"
        }
      ],
      "stateMutability": "view",
      "type": "function"
    },
    {
      "inputs": [
        {
          "internalType": "address",
          "name": "_address",
          "type": "address"
        }
      ],
      "name": "getVoterdata",
      "outputs": [
        {
          "internalType": "uint256",
          "name": "",
          "type": "uint256"
        },
        {
          "internalType": "string",
          "name": "",
          "type": "string"
        },
        {
          "internalType": "string",
          "name": "",
          "type": "string"
        },
        {
          "internalType": "address",
          "name": "",
          "type": "address"
        },
        {
          "internalType": "string",
          "name": "",
          "type": "string"
        },
        {
          "internalType": "bool",
          "name": "",
          "type": "bool"
        }
      ],
      "stateMutability": "view",
      "type": "function"
    },
    {
      "inputs": [
        {
          "internalType": "address",
          "name": "_address",
          "type": "address"
        },
        {
          "internalType": "string",
          "name": "_age",
          "type": "string"
        },
        {
          "internalType": "string",
          "name": "_name",
          "type": "string"
        },
        {
          "internalType": "string",
          "name": "_image",
          "type": "string"
        },
        {
          "internalType": "string",
          "name": "_ipfs",
          "type": "string"
        }
      ],
      "name": "setCandidate",
      "outputs": [],
      "stateMutability": "nonpayable",
      "type": "function"
    },
    {
      "inputs": [
        {
          "internalType": "address",
          "name": "_address",
          "type": "address"
        },
        {
          "internalType": "string",
          "name": "_name",
          "type": "string"
        },
        {
          "internalType": "uint256",
          "name": "_age",
          "type": "uint256"
        },
        {
          "internalType": "string",
          "name": "_image",
          "type": "string"
        },
        {
          "internalType": "string",
          "name": "_ipfs",
          "type": "string"
        }
      ],
      "name": "setVoter",
      "outputs": [],
      "stateMutability": "nonpayable",
      "type": "function"
    },
    {
      "inputs": [
        {
          "internalType": "address",
          "name": "_candidateAddress",
          "type": "address"
        },
        {
          "internalType": "uint256",
          "name": "_candidateVoteId",
          "type": "uint256"
        }
      ],
      "name": "vote",
      "outputs": [],
      "stateMutability": "nonpayable",
      "type": "function"
    },
    {
      "inputs": [
        {
          "internalType": "uint256",
          "name": "",
          "type": "uint256"
        }
      ],
      "name": "votedVoters",
      "outputs": [
        {
          "internalType": "address",
          "name": "",
          "type": "address"
        }
      ],
      "stateMutability": "view",
      "type": "function"
    },
    {
      "inputs": [
        {
          "internalType": "address",
          "name": "",
          "type": "address"
        }
      ],
      "name": "voters",
      "outputs": [
        {
          "internalType": "uint256",
          "name": "voter_voterId",
          "type": "uint256"
        },
        {
          "internalType": "string",
          "name": "voter_name",
          "type": "string"
        },
        {
          "internalType": "uint256",
          "name": "voter_age",
          "type": "uint256"
        },
        {
          "internalType": "string",
          "name": "voter_image",
          "type": "string"
        },
        {
          "internalType": "address",
          "name": "voter_address",
          "type": "address"
        },
        {
          "internalType": "bool",
          "name": "voter_voted",
          "type": "bool"
        },
        {
          "internalType": "uint256",
          "name": "voter_vote",
          "type": "uint256"
        },
        {
          "internalType": "string",
          "name": "voter_ipfs",
          "type": "string"
        }
      ],
      "stateMutability": "view",
      "type": "function"
    },
    {
      "inputs": [
        {
          "internalType": "uint256",
          "name": "",
          "type": "uint256"
        }
      ],
      "name": "votersAddress",
      "outputs": [
        {
          "internalType": "address",
          "name": "",
          "type": "address"
        }
      ],
      "stateMutability": "view",
      "type": "function"
    },
    {
      "inputs": [],
      "name": "votingOrganizer",
      "outputs": [
        {
          "internalType": "address",
          "name": "",
          "type": "address"
        }
      ],
      "stateMutability": "view",
      "type": "function"
    }
  ],
  "bytecode": "0x608060405234801561001057600080fd5b5033600260006101000a81548173ffffffffffffffffffffffffffffffffffffffff021916908373ffffffffffffffffffffffffffffffffffffffff16021790555061289a806100616000396000f3fe608060405234801561001057600080fd5b50600436106101165760003560e01c80639ebcb337116100a2578063b63c82ca11610071578063b63c82ca14610304578063b9be31521461033a578063c5036fd414610358578063c91ec7121461038d578063f7522a83146103a957610116565b80639ebcb33714610275578063a3ec138d14610291578063a7388967146102c8578063b28d92ae146102e657610116565b80635f74bbde116100e95780635f74bbde146101b757806370218b85146101d35780637831ffb3146101f15780638ab66a90146102215780638e9456851461025757610116565b806305ad45a41461011b5780633a88251a1461013957806343242daa146101695780635cc48aa714610199575b600080fd5b6101236103c7565b60405161013091906119d8565b60405180910390f35b610153600480360381019061014e9190611a33565b6103d4565b6040516101609190611aa1565b60405180910390f35b610183600480360381019061017e9190611a33565b610413565b6040516101909190611aa1565b60405180910390f35b6101a1610452565b6040516101ae9190611aa1565b60405180910390f35b6101d160048036038101906101cc9190611ae8565b610478565b005b6101db61063c565b6040516101e89190611be6565b60405180910390f35b61020b60048036038101906102069190611a33565b6106ca565b6040516102189190611aa1565b60405180910390f35b61023b60048036038101906102369190611c08565b610709565b60405161024e9796959493929190611cc5565b60405180910390f35b61025f61098b565b60405161026c9190611be6565b60405180910390f35b61028f600480360381019061028a9190611e85565b610a19565b005b6102ab60048036038101906102a69190611c08565b610cd9565b6040516102bf989796959493929190611f6f565b60405180910390f35b6102d0610ee6565b6040516102dd91906119d8565b60405180910390f35b6102ee610ef2565b6040516102fb9190611be6565b60405180910390f35b61031e60048036038101906103199190611c08565b610f80565b6040516103319796959493929190612002565b60405180910390f35b6103426113c7565b60405161034f91906119d8565b60405180910390f35b610372600480360381019061036d9190611c08565b6113d3565b6040516103849695949392919061208d565b60405180910390f35b6103a760048036038101906103a29190612103565b611753565b005b6103b161198e565b6040516103be91906119d8565b60405180910390f35b6000600680549050905090565b600381815481106103e457600080fd5b906000526020600020016000915054906101000a900473ffffffffffffffffffffffffffffffffffffffff1681565b6006818154811061042357600080fd5b906000526020600020016000915054906101000a900473ffffffffffffffffffffffffffffffffffffffff1681565b600260009054906101000a900473ffffffffffffffffffffffffffffffffffffffff1681565b6000600760003373ffffffffffffffffffffffffffffffffffffffff1673ffffffffffffffffffffffffffffffffffffffff16815260200190815260200160002090506000816000015411610502576040517f08c379a00000000000000000000000000000000000000000000000000000000081526004016104f99061223a565b60405180910390fd5b8060040160149054906101000a900460ff1615610554576040517f08c379a000000000000000000000000000000000000000000000000000000000815260040161054b906122a6565b60405180910390fd5b60018160040160146101000a81548160ff0219169083151502179055508181600501819055506005339080600181540180825580915050600190039060005260206000200160009091909190916101000a81548173ffffffffffffffffffffffffffffffffffffffff021916908373ffffffffffffffffffffffffffffffffffffffff1602179055506001600460008573ffffffffffffffffffffffffffffffffffffffff1673ffffffffffffffffffffffffffffffffffffffff168152602001908152602001600020600401600082825461063091906122f5565b92505081905550505050565b606060038054806020026020016040519081016040528092919081815260200182805480156106c057602002820191906000526020600020905b8160009054906101000a900473ffffffffffffffffffffffffffffffffffffffff1673ffffffffffffffffffffffffffffffffffffffff1681526020019060010190808311610676575b5050505050905090565b600581815481106106da57600080fd5b906000526020600020016000915054906101000a900473ffffffffffffffffffffffffffffffffffffffff1681565b600460205280600052604060002060009150905080600001549080600101805461073290612358565b80601f016020809104026020016040519081016040528092919081815260200182805461075e90612358565b80156107ab5780601f10610780576101008083540402835291602001916107ab565b820191906000526020600020905b81548152906001019060200180831161078e57829003601f168201915b5050505050908060020180546107c090612358565b80601f01602080910402602001604051908101604052809291908181526020018280546107ec90612358565b80156108395780601f1061080e57610100808354040283529160200191610839565b820191906000526020600020905b81548152906001019060200180831161081c57829003601f168201915b50505050509080600301805461084e90612358565b80601f016020809104026020016040519081016040528092919081815260200182805461087a90612358565b80156108c75780601f1061089c576101008083540402835291602001916108c7565b820191906000526020600020905b8154815290600101906020018083116108aa57829003601f168201915b5050505050908060040154908060050160009054906101000a900473ffffffffffffffffffffffffffffffffffffffff169080600601805461090890612358565b80601f016020809104026020016040519081016040528092919081815260200182805461093490612358565b80156109815780601f1061095657610100808354040283529160200191610981565b820191906000526020600020905b81548152906001019060200180831161096457829003601f168201915b5050505050905087565b60606005805480602002602001604051908101604052809291908181526020018280548015610a0f57602002820191906000526020600020905b8160009054906101000a900473ffffffffffffffffffffffffffffffffffffffff1673ffffffffffffffffffffffffffffffffffffffff16815260200190600101908083116109c5575b5050505050905090565b3373ffffffffffffffffffffffffffffffffffffffff16600260009054906101000a900473ffffffffffffffffffffffffffffffffffffffff1673ffffffffffffffffffffffffffffffffffffffff1614610aa9576040517f08c379a0000000000000000000000000000000000000000000000000000000008152600401610aa0906123d5565b60405180910390fd5b60128311610aec576040517f08c379a0000000000000000000000000000000000000000000000000000000008152600401610ae390612441565b60405180910390fd5b610af6600061199b565b6000610b0260006119b1565b90506000600760008873ffffffffffffffffffffffffffffffffffffffff1673ffffffffffffffffffffffffffffffffffffffff16815260200190815260200160002090508060040160149054906101000a900460ff1615610b6357600080fd5b85816001019081610b74919061260d565b5084816002018190555083816003019081610b8f919061260d565b50868160040160006101000a81548173ffffffffffffffffffffffffffffffffffffffff021916908373ffffffffffffffffffffffffffffffffffffffff1602179055508181600001819055506103e8816005018190555060008160040160146101000a81548160ff02191690831515021790555082816006019081610c15919061260d565b506006879080600181540180825580915050600190039060005260206000200160009091909190916101000a81548173ffffffffffffffffffffffffffffffffffffffff021916908373ffffffffffffffffffffffffffffffffffffffff160217905550817fdc0d6274e739a80acd29dcedb59a1bb0ef8262ef7d0614127dde09fe07b4e0b187868a8560040160149054906101000a900460ff16866005015489604051610cc8969594939291906126df565b60405180910390a250505050505050565b6007602052806000526040600020600091509050806000015490806001018054610d0290612358565b80601f0160208091040260200160405190810160405280929190818152602001828054610d2e90612358565b8015610d7b5780601f10610d5057610100808354040283529160200191610d7b565b820191906000526020600020905b815481529060010190602001808311610d5e57829003601f168201915b505050505090806002015490806003018054610d9690612358565b80601f0160208091040260200160405190810160405280929190818152602001828054610dc290612358565b8015610e0f5780601f10610de457610100808354040283529160200191610e0f565b820191906000526020600020905b815481529060010190602001808311610df257829003601f168201915b5050505050908060040160009054906101000a900473ffffffffffffffffffffffffffffffffffffffff16908060040160149054906101000a900460ff1690806005015490806006018054610e6390612358565b80601f0160208091040260200160405190810160405280929190818152602001828054610e8f90612358565b8015610edc5780601f10610eb157610100808354040283529160200191610edc565b820191906000526020600020905b815481529060010190602001808311610ebf57829003601f168201915b5050505050905088565b60018060000154905081565b60606006805480602002602001604051908101604052809291908181526020018280548015610f7657602002820191906000526020600020905b8160009054906101000a900473ffffffffffffffffffffffffffffffffffffffff1673ffffffffffffffffffffffffffffffffffffffff1681526020019060010190808311610f2c575b5050505050905090565b60608060006060600060606000600460008973ffffffffffffffffffffffffffffffffffffffff1673ffffffffffffffffffffffffffffffffffffffff168152602001908152602001600020600101600460008a73ffffffffffffffffffffffffffffffffffffffff1673ffffffffffffffffffffffffffffffffffffffff168152602001908152602001600020600201600460008b73ffffffffffffffffffffffffffffffffffffffff1673ffffffffffffffffffffffffffffffffffffffff16815260200190815260200160002060000154600460008c73ffffffffffffffffffffffffffffffffffffffff1673ffffffffffffffffffffffffffffffffffffffff168152602001908152602001600020600301600460008d73ffffffffffffffffffffffffffffffffffffffff1673ffffffffffffffffffffffffffffffffffffffff16815260200190815260200160002060040154600460008e73ffffffffffffffffffffffffffffffffffffffff1673ffffffffffffffffffffffffffffffffffffffff168152602001908152602001600020600601600460008f73ffffffffffffffffffffffffffffffffffffffff1673ffffffffffffffffffffffffffffffffffffffff16815260200190815260200160002060050160009054906101000a900473ffffffffffffffffffffffffffffffffffffffff1686805461118a90612358565b80601f01602080910402602001604051908101604052809291908181526020018280546111b690612358565b80156112035780601f106111d857610100808354040283529160200191611203565b820191906000526020600020905b8154815290600101906020018083116111e657829003601f168201915b5050505050965085805461121690612358565b80601f016020809104026020016040519081016040528092919081815260200182805461124290612358565b801561128f5780601f106112645761010080835404028352916020019161128f565b820191906000526020600020905b81548152906001019060200180831161127257829003601f168201915b505050505095508380546112a290612358565b80601f01602080910402602001604051908101604052809291908181526020018280546112ce90612358565b801561131b5780601f106112f05761010080835404028352916020019161131b565b820191906000526020600020905b8154815290600101906020018083116112fe57829003601f168201915b5050505050935081805461132e90612358565b80601f016020809104026020016040519081016040528092919081815260200182805461135a90612358565b80156113a75780601f1061137c576101008083540402835291602001916113a7565b820191906000526020600020905b81548152906001019060200180831161138a57829003601f168201915b505050505091509650965096509650965096509650919395979092949650565b60008060000154905081565b6000606080600060606000600760008873ffffffffffffffffffffffffffffffffffffffff1673ffffffffffffffffffffffffffffffffffffffff16815260200190815260200160002060000154600760008973ffffffffffffffffffffffffffffffffffffffff1673ffffffffffffffffffffffffffffffffffffffff168152602001908152602001600020600101600760008a73ffffffffffffffffffffffffffffffffffffffff1673ffffffffffffffffffffffffffffffffffffffff168152602001908152602001600020600301600760008b73ffffffffffffffffffffffffffffffffffffffff1673ffffffffffffffffffffffffffffffffffffffff16815260200190815260200160002060040160009054906101000a900473ffffffffffffffffffffffffffffffffffffffff16600760008c73ffffffffffffffffffffffffffffffffffffffff1673ffffffffffffffffffffffffffffffffffffffff168152602001908152602001600020600601600760008d73ffffffffffffffffffffffffffffffffffffffff1673ffffffffffffffffffffffffffffffffffffffff16815260200190815260200160002060040160149054906101000a900460ff168480546115a690612358565b80601f01602080910402602001604051908101604052809291908181526020018280546115d290612358565b801561161f5780601f106115f45761010080835404028352916020019161161f565b820191906000526020600020905b81548152906001019060200180831161160257829003601f168201915b5050505050945083805461163290612358565b80601f016020809104026020016040519081016040528092919081815260200182805461165e90612358565b80156116ab5780601f10611680576101008083540402835291602001916116ab565b820191906000526020600020905b81548152906001019060200180831161168e57829003601f168201915b505050505093508180546116be90612358565b80601f01602080910402602001604051908101604052809291908181526020018280546116ea90612358565b80156117375780601f1061170c57610100808354040283529160200191611737565b820191906000526020600020905b81548152906001019060200180831161171a57829003601f168201915b5050505050915095509550955095509550955091939550919395565b3373ffffffffffffffffffffffffffffffffffffffff16600260009054906101000a900473ffffffffffffffffffffffffffffffffffffffff1673ffffffffffffffffffffffffffffffffffffffff16146117e3576040517f08c379a00000000000000000000000000000000000000000000000000000000081526004016117da906127c7565b60405180910390fd5b6117ed600161199b565b60006117f960016119b1565b90506000600460008873ffffffffffffffffffffffffffffffffffffffff1673ffffffffffffffffffffffffffffffffffffffff16815260200190815260200160002090508581600101908161184f919061260d565b5084816002019081611861919061260d565b508181600001819055508381600301908161187c919061260d565b5060008160040181905550868160050160006101000a81548173ffffffffffffffffffffffffffffffffffffffff021916908373ffffffffffffffffffffffffffffffffffffffff160217905550828160060190816118db919061260d565b506003879080600181540180825580915050600190039060005260206000200160009091909190916101000a81548173ffffffffffffffffffffffffffffffffffffffff021916908373ffffffffffffffffffffffffffffffffffffffff160217905550817fd297f12b256bb8485a6013fb5e302017018123e99a0ebb20756c09e1707b4b9087878785600401548c8960405161197d969594939291906127e7565b60405180910390a250505050505050565b6000600380549050905090565b6001816000016000828254019250508190555050565b600081600001549050919050565b6000819050919050565b6119d2816119bf565b82525050565b60006020820190506119ed60008301846119c9565b92915050565b6000604051905090565b600080fd5b600080fd5b611a10816119bf565b8114611a1b57600080fd5b50565b600081359050611a2d81611a07565b92915050565b600060208284031215611a4957611a486119fd565b5b6000611a5784828501611a1e565b91505092915050565b600073ffffffffffffffffffffffffffffffffffffffff82169050919050565b6000611a8b82611a60565b9050919050565b611a9b81611a80565b82525050565b6000602082019050611ab66000830184611a92565b92915050565b611ac581611a80565b8114611ad057600080fd5b50565b600081359050611ae281611abc565b92915050565b60008060408385031215611aff57611afe6119fd565b5b6000611b0d85828601611ad3565b9250506020611b1e85828601611a1e565b9150509250929050565b600081519050919050565b600082825260208201905092915050565b6000819050602082019050919050565b611b5d81611a80565b82525050565b6000611b6f8383611b54565b60208301905092915050565b6000602082019050919050565b6000611b9382611b28565b611b9d8185611b33565b9350611ba883611b44565b8060005b83811015611bd9578151611bc08882611b63565b9750611bcb83611b7b565b925050600181019050611bac565b5085935050505092915050565b60006020820190508181036000830152611c008184611b88565b905092915050565b600060208284031215611c1e57611c1d6119fd565b5b6000611c2c84828501611ad3565b91505092915050565b600081519050919050565b600082825260208201905092915050565b60005b83811015611c6f578082015181840152602081019050611c54565b60008484015250505050565b6000601f19601f8301169050919050565b6000611c9782611c35565b611ca18185611c40565b9350611cb1818560208601611c51565b611cba81611c7b565b840191505092915050565b600060e082019050611cda600083018a6119c9565b8181036020830152611cec8189611c8c565b90508181036040830152611d008188611c8c565b90508181036060830152611d148187611c8c565b9050611d2360808301866119c9565b611d3060a0830185611a92565b81810360c0830152611d428184611c8c565b905098975050505050505050565b600080fd5b600080fd5b7f4e487b7100000000000000000000000000000000000000000000000000000000600052604160045260246000fd5b611d9282611c7b565b810181811067ffffffffffffffff82111715611db157611db0611d5a565b5b80604052505050565b6000611dc46119f3565b9050611dd08282611d89565b919050565b600067ffffffffffffffff821115611df057611def611d5a565b5b611df982611c7b565b9050602081019050919050565b82818337600083830152505050565b6000611e28611e2384611dd5565b611dba565b905082815260208101848484011115611e4457611e43611d55565b5b611e4f848285611e06565b509392505050565b600082601f830112611e6c57611e6b611d50565b5b8135611e7c848260208601611e15565b91505092915050565b600080600080600060a08688031215611ea157611ea06119fd565b5b6000611eaf88828901611ad3565b955050602086013567ffffffffffffffff811115611ed057611ecf611a02565b5b611edc88828901611e57565b9450506040611eed88828901611a1e565b935050606086013567ffffffffffffffff811115611f0e57611f0d611a02565b5b611f1a88828901611e57565b925050608086013567ffffffffffffffff811115611f3b57611f3a611a02565b5b611f4788828901611e57565b9150509295509295909350565b60008115159050919050565b611f6981611f54565b82525050565b600061010082019050611f85600083018b6119c9565b8181036020830152611f97818a611c8c565b9050611fa660408301896119c9565b8181036060830152611fb88188611c8c565b9050611fc76080830187611a92565b611fd460a0830186611f60565b611fe160c08301856119c9565b81810360e0830152611ff38184611c8c565b90509998505050505050505050565b600060e082019050818103600083015261201c818a611c8c565b905081810360208301526120308189611c8c565b905061203f60408301886119c9565b81810360608301526120518187611c8c565b905061206060808301866119c9565b81810360a08301526120728185611c8c565b905061208160c0830184611a92565b98975050505050505050565b600060c0820190506120a260008301896119c9565b81810360208301526120b48188611c8c565b905081810360408301526120c88187611c8c565b90506120d76060830186611a92565b81810360808301526120e98185611c8c565b90506120f860a0830184611f60565b979650505050505050565b600080600080600060a0868803121561211f5761211e6119fd565b5b600061212d88828901611ad3565b955050602086013567ffffffffffffffff81111561214e5761214d611a02565b5b61215a88828901611e57565b945050604086013567ffffffffffffffff81111561217b5761217a611a02565b5b61218788828901611e57565b935050606086013567ffffffffffffffff8111156121a8576121a7611a02565b5b6121b488828901611e57565b925050608086013567ffffffffffffffff8111156121d5576121d4611a02565b5b6121e188828901611e57565b9150509295509295909350565b7f596f7520617265206e6f74206120766f74657200000000000000000000000000600082015250565b6000612224601383611c40565b915061222f826121ee565b602082019050919050565b6000602082019050818103600083015261225381612217565b9050919050565b7f596f75206861766520616c726561647920766f74656400000000000000000000600082015250565b6000612290601683611c40565b915061229b8261225a565b602082019050919050565b600060208201905081810360008301526122bf81612283565b9050919050565b7f4e487b7100000000000000000000000000000000000000000000000000000000600052601160045260246000fd5b6000612300826119bf565b915061230b836119bf565b9250828201905080821115612323576123226122c6565b5b92915050565b7f4e487b7100000000000000000000000000000000000000000000000000000000600052602260045260246000fd5b6000600282049050600182168061237057607f821691505b60208210810361238357612382612329565b5b50919050565b7f4f6e6c79204f7267616e697a6572732063616e2063726561746520766f746572600082015250565b60006123bf602083611c40565b91506123ca82612389565b602082019050919050565b600060208201905081810360008301526123ee816123b2565b9050919050565b7f566f746572206d757374206265206f6c646572207468616e2031380000000000600082015250565b600061242b601b83611c40565b9150612436826123f5565b602082019050919050565b6000602082019050818103600083015261245a8161241e565b9050919050565b60008190508160005260206000209050919050565b60006020601f8301049050919050565b600082821b905092915050565b6000600883026124c37fffffffffffffffffffffffffffffffffffffffffffffffffffffffffffffffff82612486565b6124cd8683612486565b95508019841693508086168417925050509392505050565b6000819050919050565b600061250a612505612500846119bf565b6124e5565b6119bf565b9050919050565b6000819050919050565b612524836124ef565b61253861253082612511565b848454612493565b825550505050565b600090565b61254d612540565b61255881848461251b565b505050565b5b8181101561257c57612571600082612545565b60018101905061255e565b5050565b601f8211156125c15761259281612461565b61259b84612476565b810160208510156125aa578190505b6125be6125b685612476565b83018261255d565b50505b505050565b600082821c905092915050565b60006125e4600019846008026125c6565b1980831691505092915050565b60006125fd83836125d3565b9150826002028217905092915050565b61261682611c35565b67ffffffffffffffff81111561262f5761262e611d5a565b5b6126398254612358565b612644828285612580565b600060209050601f8311600181146126775760008415612665578287015190505b61266f85826125f1565b8655506126d7565b601f19841661268586612461565b60005b828110156126ad57848901518255600182019150602085019450602081019050612688565b868310156126ca57848901516126c6601f8916826125d3565b8355505b6001600288020188555050505b505050505050565b600060c08201905081810360008301526126f98189611c8c565b9050818103602083015261270d8188611c8c565b905061271c6040830187611a92565b6127296060830186611f60565b61273660808301856119c9565b81810360a08301526127488184611c8c565b9050979650505050505050565b7f4f6e6c79206f7267616e697a65722063616e2063726561746520612063616e6460008201527f6964617465000000000000000000000000000000000000000000000000000000602082015250565b60006127b1602583611c40565b91506127bc82612755565b604082019050919050565b600060208201905081810360008301526127e0816127a4565b9050919050565b600060c08201905081810360008301526128018189611c8c565b905081810360208301526128158188611c8c565b905081810360408301526128298187611c8c565b905061283860608301866119c9565b6128456080830185611a92565b81810360a08301526128578184611c8c565b905097965050505050505056fea2646970667358221220ddabe259cc76721cd9e5e67c008d21beb58e9e1b694178b4b8e2d91f11a20ef364736f6c63430008180033",
  "linkReferences": {},
  "deployedLinkReferences": {}
}